:100000000C9454000C947C000C947C000C947C00A8
:100010000C947C000C947C000C947C000C947C0070
:100020000C947C000C947C000C947C000C947C0060
:100030000C9431010C947C000C947C000C947C009A
:100040000C9484030C947C000C947C000C947C0035
:100050000C94B8030C947C000C947C000C947C00F1
:100060000C947C000C947C000C947C000C947C0020
:10007000018040201008040201201004020108043D
:10008000020802010101010101010103030303034D
:1000900002020203002F2B2700322E2A00312D29C5
:1000A00000302C28B3004F0411241FBECFEFD4E042
:1000B000DEBFCDBF11E0A0E0B1E0E8E2FAE002C0AF
:1000C00005900D92A031B107D9F721E0A0E1B1E090
:1000D00001C01D92AD3FB207E1F710E0C4E5D0E0EA
:1000E00004C02197FE010E940C05C235D107C9F753
:1000F0000E94E3040C9412050C94000026E040EBEF
:1001000054E060E070E086E591E00E94ED0361E07C
:1001100082E00E94330261E083E00E94330280E1CA
:1001200091E00C94C9006FEF70E082E00E94EA0158
:1001300060E070E083E00E94EA0162E370E080E04A
:1001400090E00E94AE0160E070E082E00E94EA016F
:100150006FEF70E083E00E94EA0162E370E080E00C
:1001600090E00C94AE0164E070E082E291E00E94C5
:10017000F300E0E1F1E08BE0808389E190E0A0E032
:10018000B0E081839283A383B48381E085838683F7
:100190000895CF93DF93EC018D81811102C060E05F
:1001A00001C062E088810E94330288810E94DB02E4
:1001B00021E0892B09F420E02F838E81882319F018
:1001C00081E082278F830E947B016A877B878C87EF
:1001D0009D872F81288719866E877F87888B998BCB
:1001E000DF91CF910895EF92FF921F93CF93DF930A
:1001F0001F92CDB7DEB77C01162F61E0812F798386
:100200000E943302F7011083798171830E947B0180
:10021000F70160877187828793878DE7828385E006
:100220008383848315828EE190E0978386830F9089
:10023000DF91CF911F91FF90EF900895E1E7F0E0FB
:100240008081887F8083A2E7B0E08C918C7F816081
:100250008C938081877E80838081887F8360808388
:1002600008951F920F920FB60F9211242F933F9370
:100270008F939F93AF93BF9380912F019091300103
:10028000A0913101B091320130912E0126E0230F6F
:100290002D3730F029E8230F0396A11DB11D03C0AF
:1002A0000296A11DB11D20932E0180932F019093E2
:1002B0003001A0933101B0933201809133019091CC
:1002C0003401A0913501B09136010196A11DB11DF7
:1002D0008093330190933401A0933501B09336019C
:1002E000BF91AF919F918F913F912F910F900FBE32
:1002F0000F901F9018952FB7F89460912F0170916F
:10030000300180913101909132012FBF08953FB7A4
:10031000F8948091330190913401A0913501B0910E
:10032000360129B309B601FE05C02F3F19F0019629
:10033000A11DB11D3FBFBA2FA92F982F8827820F6B
:10034000911DA11DB11DBC01CD0143E0660F771FBA
:10035000881F991F4A95D1F708950895CF92DF928B
:10036000EF92FF92CF93DF936B017C010E94870194
:10037000EB01C114D104E104F10489F00E94AD0144
:100380000E9487016C1B7D0B683E734090F381E0F7
:10039000C81AD108E108F108C851DC4FF1CFDF914C
:1003A000CF91FF90EF90DF90CF90089578948BB32A
:1003B00083608BBBD3988AB3887F83608ABB8AB7FC
:1003C00082608ABF0E941E0183B1887F866083B9E4
:1003D0001F9A08950F931F93CF93C82F8B0161E04D
:1003E0000E9433021016110614F060E004C00F3FA3
:1003F00011053CF061E08C2FCF911F910F910C946F
:100400008B02CD3031F48BB38F7380688BBB08BB0C
:1004100026C0C33031F48BB38F7C80628BBB07BBAB
:100420001EC0CE3059F4809172008F738068809323
:10043000720010936D0000936C0011C0C23059F42B
:10044000809172008F7C80628093720010936B00A9
:1004500000936A0004C00038110564F6C6CFCF913E
:100460001F910F910895CF93DF9386FF08C0A82FA7
:10047000AF73A63010F485E001C086E18A1BA82F77
:10048000B0E0FD01E059FF4F9491FD01EE57FF4FA1
:10049000A491AA2309F43CC0B0E0FD01E056FF4F4F
:1004A000E491CE2FD0E0FD01E456FF4FE4912E2FD2
:1004B00030E0FD01E856FF4FA491B0E0892F809510
:1004C00061110DC04FB7F894988198239883F90172
:1004D0009081982390839C9189238C930EC06230E5
:1004E00071F44FB7F894588185238883F90180818E
:1004F000892B8083EC919E2B9C934FBF09C02FB713
:10050000F8943C9183238C93E8819E2B98832FBF92
:10051000DF91CF910895CF93DF9386FF08C0982F86
:100520009F73963010F485E001C086E1891BA82FE7
:10053000B0E0FD01E059FF4F9491FD01EE57FF4FF0
:10054000A491AA23A9F18D3019F48BB38F7304C041
:10055000833021F48BB38F7C8BBB0DC08E3021F4A4
:10056000809172008F7305C0823029F480917200EF
:100570008F7C80937200B0E0FD01E456FF4FC49180
:10058000D0E0FD01E856FF4FA491B0E0892F80959F
:100590002FB7611105C0F89498819823988304C0FF
:1005A000F894E881E92BE8839C9189238C932FBFF1
:1005B000DF91CF91089587FF08C0982F9F779630DD
:1005C00010F485E001C086E1891B282F30E0F90195
:1005D000E059FF4F9491F901EE57FF4FE491EE235C
:1005E00021F18D3019F48BB38F7304C0833021F463
:1005F0008BB38F7C8BBB0DC08E3021F48091720049
:100600008F7305C0823029F4809172008F7C8093B3
:100610007200F0E0EC56FF4FA491B0E0EC91E923BA
:1006200081E090E021F480E0089580E090E008957A
:10063000FC0124853585F901E05CFF4F80819181C3
:10064000329620813181821B930B8F7399270895F5
:10065000FC0124853585F901EE5BFF4F8081918196
:100660003297408151814817590731F0F901E80F5D
:10067000F91F808190E008958FEF9FEF0895FC01AE
:1006800084859585FC01EE5BFF4F20813181DC0183
:10069000A05CBF4F4D915C914217530761F0DC01A4
:1006A000A20FB31F8C912F5F3F4F2F7333273183DE
:1006B000208390E008958FEF9FEF0895FC018485DB
:1006C0009585DC01A05CBF4FFC01EE5BFF4F808194
:1006D00091818D939C930895FC01A289B38981E057
:1006E00090E0058C02C0880F991F0A94E2F72C91C4
:1006F00030E028233923232BD1F30688F789E02D16
:10070000608381E090E008951F920F920FB60F92E0
:1007100011242F933F934F936F937F938F939F93C6
:10072000EF93FF9340B52091F9013091FA01C9018F
:1007300001968F7399276091FB017091FC018617D8
:10074000970741F0F901E754FE4F40839093FA0177
:100750008093F901FF91EF919F918F917F916F911C
:100760004F913F912F910F900FBE0F901F901895B2
:100770001F920F920FB60F9211242F933F934F9316
:100780006F937F938F939F93EF93FF9340917300A9
:100790002091B5013091B601C90101968F73992757
:1007A0006091B7017091B8018617970741F0F90180
:1007B000EB58FE4F40839093B6018093B501FF91B3
:1007C000EF919F918F917F916F914F913F912F91D9
:1007D0000F900FBE0F901F9018958F929F92AF921F
:1007E000BF92FF920F931F93CF93DF93EC014A01C7
:1007F0005B01F22EEA89FB8901E010E0C8010E8C52
:1008000002C0880F991F0A94E2F7808360E874E8B9
:100810008EE190E0A50194010E94EA04DA01C90189
:100820000197A109B109B695A79597958795EE858A
:10083000FF85292F33272083E889F9898083E88D74
:10084000F98DF082EC89FD892081C8010A8C02C0F3
:10085000880F991F0A94E2F7822B8083EC89FD8927
:100860002081C8010B8C02C0880F991F0A94E2F7FF
:10087000822B8083EC89FD8980810C8C02C0000F63
:10088000111F0A94E2F7082B0083DF91CF911F918B
:100890000F91FF90BF90AF909F908F900895CF924F
:1008A000DF92EF92FF92E6E5F1E01382128288EE8A
:1008B000C82E83E0D82EE12CF12CC482D582E682AA
:1008C000F78264E071E07183608389EB91E0958742
:1008D000848782E490E09787868781E490E0918B1B
:1008E000808B86E490E0938B828B85E490E0958BFF
:1008F000848B84E490E0918F808F80E490E0978BEC
:10090000868B44E0428F33E0338F27E0248F95E0DD
:10091000958F81E0868FE7E3F1E013821282C48233
:10092000D582E682F7827183608365E771E075871F
:10093000648765E770E07787668764E770E0718BAE
:10094000608B69E770E0738B628B68E770E0758B92
:10095000648B67E770E0718F608F63E770E0778B7F
:10096000668B428F338F248F958F868FFF90EF9009
:10097000DF90CF900895CF92DF92EF92FF920F9386
:100980001F93CF93DF936C01EB017B01E40EF51E07
:1009900000E010E0CE15DF0561F06991D601ED9120
:1009A000FC910190F081E02DC6010995080F191FF7
:1009B000F1CFC801DF91CF911F910F91FF90EF9080
:1009C000DF90CF9008950E94D6010E947E000E9481
:1009D0009300FDCFA1E21A2EAA1BBB1BFD010DC087
:1009E000AA1FBB1FEE1FFF1FA217B307E407F507DF
:1009F00020F0A21BB30BE40BF50B661F771F881FBB
:100A0000991F1A9469F760957095809590959B0150
:100A1000AC01BD01CF010895EE0FFF1F0590F491C9
:080A2000E02D0994F894FFCFCA
:100A2800000000006C03BB0418033F0328035E03A7
:00000001FF
