:100000000C9454000C947C000C947C000C947C00A8
:100010000C947C000C947C000C947C000C947C0070
:100020000C947C000C947C000C947C000C947C0060
:100030000C9440020C947C000C947C000C947C008A
:100040000C945A040C947C000C947C000C947C005E
:100050000C948E040C947C000C947C000C947C001A
:100060000C947C000C947C000C947C000C947C0020
:10007000018040201008040201201004020108043D
:10008000020802010101010101010103030303034D
:1000900002020203002F2B2700322E2A00312D29C5
:1000A00000302C281701250511241FBECFEFD4E006
:1000B000DEBFCDBF11E0A0E0B1E0E2E0FEE002C0B3
:1000C00005900D92A233B107D9F722E0A2E3B1E087
:1000D00001C01D92A532B207E1F710E0C4E5D0E0FF
:1000E00004C02197FE010E94F906C235D107C9F765
:1000F0000E94B6060C94FF060C94000026E040EB2C
:1001000054E060E070E08EE791E00E94C30461E09B
:1001100082E00E94090361E083E00E94090382E318
:1001200091E00C942D0160E071E08EE791E00E9477
:10013000EB0584E190E09093510180935001809110
:1001400053019091540164E170E00E94C606BC0125
:1001500082E00E94C002809153019091540160910D
:100160005001709151010E94C606BC0183E00E94BB
:10017000C00282E391E00E94570182E391E00E9475
:100180009A01882349F0809153019091540101967E
:1001900090935401809353018091530190915401A5
:1001A000069724F0109254011092530180E40E94AB
:1001B000AA028A3F910514F41092520180E40E9431
:1001C000AA028D3B92401CF081E0809352016FE0C7
:1001D00071E08EE791E00E94CE056091530170912D
:1001E00054014AE050E08EE791E00E949F0667E1EB
:1001F00071E08EE791E00E94CE056091520170E0BF
:100200004AE050E08EE791E00E949F068091530102
:10021000909154016AEF70E00E94C606BC0184E42C
:1002200091E00E94270284E491E00C94CD0164E007
:1002300070E084E491E00E94A201E2E3F1E08BE04F
:10024000808389E190E0A0E0B0E081839283A38382
:10025000B48381E0858386830895CF93DF93EC0197
:100260008D81811102C060E001C062E088810E943E
:10027000090388810E94B10321E0892B09F420E061
:100280002F838E81882319F081E082278F830E943B
:100290008A026A877B878C879D872F8128871986AA
:1002A0006E877F87888B998BDF91CF910895CF924E
:1002B000DF92EF92FF92CF93DF93EC010E948A02CC
:1002C0006B017C0188810E94B10321E0892B09F434
:1002D00020E08E81882311F081E028278E859F857C
:1002E000A889B989B701A601481B590B6A0B7B0B7A
:1002F00089819A81AB81BC81481759076A077B07BE
:1003000010F419860BC08F8188872F8382278987F5
:10031000882321F0CE86DF86E88AF98ACA86DB86C2
:10032000EC86FD868F81DF91CF91FF90EF90DF907B
:10033000CF900895FC012781211102C08185089585
:1003400080E00895EF92FF921F93CF93DF931F9267
:10035000CDB7DEB77C01162F61E0812F79830E9433
:100360000903F7011083798171830E948A02F701E2
:1003700060877187828793878DE7828385E0838397
:10038000848315828EE190E0978386830F90DF91BE
:10039000CF911F91FF90EF9008950F931F93CF93EC
:1003A000DF93EC010E948A02088519852A853B8526
:1003B000AB01BC01401B510B620B730B8E819F8103
:1003C000092E000CAA0BBB0B84179507A607B707CD
:1003D000A8F50E948A02688779878A879B879D8112
:1003E000911102C01A822AC0913019F48FEF8A83CA
:1003F00025C08A81923069F49C81890F8A8381119A
:1004000002C08B8104C08F3FC9F48B8181958C839E
:1004100015C0933031F49B81891B8A83882331F383
:100420000DC0943031F49B81890F8A838F3F31F462
:10043000D9CF953019F48F3FC9F6D4CF6A8170E0D7
:100440008881DF91CF911F910F910C94C00225E01C
:10045000FC012583778366830895E1E7F0E08081DE
:10046000887F8083A2E7B0E08C918C7F81608C9341
:100470008081877E80838081887F836080830895E8
:100480001F920F920FB60F9211242F933F938F93C9
:100490009F93AF93BF938091560190915701A09184
:1004A0005801B09159013091550126E0230F2D37A5
:1004B00030F029E8230F0396A11DB11D03C0029659
:1004C000A11DB11D209355018093560190935701B2
:1004D000A0935801B093590180915A0190915B010A
:1004E000A0915C01B0915D010196A11DB11D8093A9
:1004F0005A0190935B01A0935C01B0935D01BF91A1
:10050000AF919F918F913F912F910F900FBE0F90C0
:100510001F9018952FB7F89460915601709157016C
:1005200080915801909159012FBF089578948BB311
:1005300083608BBBD3988AB3887F83608ABB8AB77A
:1005400082608ABF0E942D0283B1887F866083B952
:100550001F9A089586FD8F7394B120915E012295B4
:10056000220F220F207C9F73922B94B994B1907F1D
:10057000892B84B91E9A1E99FECF80B191B108953E
:100580000F931F93CF93C82F8B0161E00E94090343
:100590001016110614F060E004C00F3F11053CF086
:1005A00061E08C2FCF911F910F910C946103CD309E
:1005B00031F48BB38F7380688BBB08BB26C0C3300C
:1005C00031F48BB38F7C80628BBB07BB1EC0CE30F7
:1005D00059F4809172008F73806880937200109339
:1005E0006D0000936C0011C0C23059F4809172000C
:1005F0008F7C80628093720010936B0000936A007E
:1006000004C00038110564F6C6CFCF911F910F9139
:100610000895CF93DF9386FF08C0A82FAF73A6304D
:1006200010F485E001C086E18A1BA82FB0E0FD012F
:10063000E059FF4F9491FD01EE57FF4FA491AA237B
:1006400009F43CC0B0E0FD01E056FF4FE491CE2F2D
:10065000D0E0FD01E456FF4FE4912E2F30E0FD0184
:10066000E856FF4FA491B0E0892F809561110DC02D
:100670004FB7F894988198239883F9019081982333
:1006800090839C9189238C930EC0623071F44FB794
:10069000F894588185238883F9018081892B808390
:1006A000EC919E2B9C934FBF09C02FB7F8943C91BF
:1006B00083238C93E8819E2B98832FBFDF91CF916A
:1006C0000895CF93DF9386FF08C0982F9F739630CD
:1006D00010F485E001C086E1891BA82FB0E0FD0180
:1006E000E059FF4F9491FD01EE57FF4FA491AA23CB
:1006F000A9F18D3019F48BB38F7304C0833021F4CA
:100700008BB38F7C8BBB0DC08E3021F48091720037
:100710008F7305C0823029F4809172008F7C8093A2
:100720007200B0E0FD01E456FF4FC491D0E0FD013E
:10073000E856FF4FA491B0E0892F80952FB7611143
:1007400005C0F89498819823988304C0F894E881B0
:10075000E92BE8839C9189238C932FBFDF91CF9164
:10076000089587FF08C0982F9F77963010F485E092
:1007700001C086E1891B282F30E0F901E059FF4FC5
:100780009491F901EE57FF4FE491EE2321F18D3062
:1007900019F48BB38F7304C0833021F48BB38F7C37
:1007A0008BBB0DC08E3021F4809172008F7305C019
:1007B000823029F4809172008F7C80937200F0E087
:1007C000EC56FF4FA491B0E0EC91E92381E090E07A
:1007D00021F480E0089580E090E00895FC012485F4
:1007E0003585F901E05CFF4F80819181329620814F
:1007F0003181821B930B8F7399270895FC01248507
:100800003585F901EE5BFF4F808191813297408100
:1008100051814817590731F0F901E80FF91F80811C
:1008200090E008958FEF9FEF0895FC0184859585F2
:10083000FC01EE5BFF4F20813181DC01A05CBF4FEA
:100840004D915C914217530761F0DC01A20FB31F79
:100850008C912F5F3F4F2F7333273183208390E09C
:1008600008958FEF9FEF0895FC0184859585DC0145
:10087000A05CBF4FFC01EE5BFF4F808191818D93A7
:100880009C930895FC01A289B38981E090E0058CD6
:1008900002C0880F991F0A94E2F72C9130E02823B8
:1008A0003923232BD1F30688F789E02D608381E07B
:1008B00090E008951F920F920FB60F9211242F937C
:1008C0003F934F936F937F938F939F93EF93FF93F8
:1008D00040B52091210230912202C90101968F7307
:1008E000992760912302709124028617970741F09F
:1008F000F901EF51FE4F4083909322028093210231
:10090000FF91EF919F918F917F916F914F913F91C7
:100910002F910F900FBE0F901F9018951F920F925E
:100920000FB60F9211242F933F934F936F937F93A2
:100930008F939F93EF93FF93409173002091DD017C
:100940003091DE01C90101968F7399276091DF0113
:100950007091E0018617970741F0F901E356FE4FC9
:1009600040839093DE018093DD01FF91EF919F9191
:100970008F917F916F914F913F912F910F900FBE6B
:100980000F901F9018958F929F92AF92BF92FF92F7
:100990000F931F93CF93DF93EC014A015B01F22E7B
:1009A000EA89FB8901E010E0C8010E8C02C0880FC3
:1009B000991F0A94E2F7808360E874E88EE190E082
:1009C000A50194010E94D706DA01C9010197A10986
:1009D000B109B695A79597958795EE85FF85292F3F
:1009E00033272083E889F9898083E88DF98DF082A7
:1009F000EC89FD892081C8010A8C02C0880F991FEB
:100A00000A94E2F7822B8083EC89FD892081C8015A
:100A10000B8C02C0880F991F0A94E2F7822B808307
:100A2000EC89FD8980810C8C02C0000F111F0A9493
:100A3000E2F7082B0083DF91CF911F910F91FF9078
:100A4000BF90AF909F908F900895CF92DF92EF92DA
:100A5000FF92EEE7F1E01382128288EEC82E83E067
:100A6000D82EE12CF12CC482D582E682F78265E291
:100A700071E07183608381EE91E09587848782E4E1
:100A800090E09787868781E490E0918B808B86E465
:100A900090E0938B828B85E490E0958B848B84E44B
:100AA00090E0918F808F80E490E0978B868B44E07C
:100AB000428F33E0338F27E0248F95E0958F81E0DC
:100AC000868FEFE5F1E013821282C482D582E6823E
:100AD000F782718360836DE971E07587648765E7EC
:100AE00070E07787668764E770E0718B608B69E7F9
:100AF00070E0738B628B68E770E0758B648B67E7DF
:100B000070E0718F608F63E770E0778B668B428F48
:100B1000338F248F958F868FFF90EF90DF90CF904B
:100B20000895CF92DF92EF92FF920F931F93CF938E
:100B3000DF936C01EB017B01E40EF51E00E010E099
:100B4000CE15DF0561F06991D601ED91FC91019020
:100B5000F081E02DC6010995080F191FF1CFC801DA
:100B6000DF91CF911F910F91FF90EF90DF90CF9089
:100B700008956115710579F0FB0101900020E9F7F6
:100B80003197AF01461B570BDC01ED91FC910280C0
:100B9000F381E02D099480E090E008950C94B9056C
:100BA000DC01ED91FC910190F081E02D09940F930F
:100BB0001F93CF93DF93EC016DE00E94D0058C0171
:100BC0006AE0CE010E94D005800F911FDF91CF9186
:100BD0001F910F9108950F931F93CF93DF93EC0113
:100BE0000E94B9058C01CE010E94D705800F911F8C
:100BF000DF91CF911F910F9108958F929F92AF92A5
:100C0000BF92CF92DF92EF92FF920F931F93CF93F9
:100C1000DF93CDB7DEB7A1970FB6F894DEBF0FBE56
:100C2000CDBF6C01142FE52FCB01022F19A222306A
:100C300008F40AE07E0121E2E20EF11C802E912CE4
:100C4000A12CB12C612F7E2FA50194010E94D70603
:100C5000802F622F0E94BD06181B81E0E81AF10860
:100C60001A3014F4105D01C0195CF7011083122FC3
:100C7000E32FCA01232B242B252B21F7B701C60113
:100C80000E94B905A1960FB6F894DEBF0FBECDBF86
:100C9000DF91CF911F910F91FF90EF90DF90CF9058
:100CA000BF90AF909F908F900895CF92DF92EF9278
:100CB000FF920F931F93CF93DF93EC016A017B01A7
:100CC0002115310579F4E881F9810190F081E02D59
:100CD000642FDF91CF911F910F91FF90EF90DF90E4
:100CE000CF9009942A303105E9F477FF1AC06DE2FC
:100CF0000E94D0058C0144275527BA014C195D0983
:100D00006E097F092AE0CE010E94FD05800F911F28
:100D1000DF91CF911F910F91FF90EF90DF90CF90D7
:100D200008952AE0B701A601CE01DF91CF911F916E
:100D30000F91FF90EF90DF90CF900C94FD050F93F3
:100D40001F93CF93DF93EC019A01AB01770F660BF2
:100D5000770B0E9455068C01CE010E94D705800FAB
:100D6000911FDF91CF911F910F9108950E949602DC
:100D70000E947E000E949300FDCF002480FD060E9D
:100D8000660F11F08695D1F7802D08950024552720
:100D900004C0080E591F880F991F009729F07695F7
:100DA0006795B8F37105B9F7802D952F0895A1E2E5
:100DB0001A2EAA1BBB1BFD010DC0AA1FBB1FEE1FD5
:100DC000FF1FA217B307E407F50720F0A21BB30B20
:100DD000E40BF50B661F771F881F991F1A9469F79C
:100DE00060957095809590959B01AC01BD01CF01F8
:100DF0000895EE0FFF1F0590F491E02D0994F894EB
:020E0000FFCF22
:100E020043757272656E7420537461747573004D0C
:100E12006F6465203D2000537461747573203D201A
:100E2200000000000042049105EE031504FE0334A5
:020E32000400BA
:00000001FF
